:020000041000EA
:1000000000B5324B212058609868022188439860DF
:10001000D860186158612E4B002199600221596106
:100020000121F02299502B49196001219960352056
:1000300000F044F80222904214D00621196600F024
:1000400034F8196E01211966002018661A6600F04E
:100050002CF8196E196E196E052000F02FF8012189
:100060000842F9D1002199601B49196000215960AB
:100070001A491B48016001219960EB211966A021F2
:10008000196600F012F800219960164914480160C1
:100090000121996001BC002800D000471248134993
:1000A000086003C880F30888084703B5996A0420EC
:1000B0000142FBD001200142F8D103BD02B5186610
:1000C0001866FFF7F2FF186E186E02BD00000240BE
:1000D000000000180000070000035F00212200005C
:1000E000F4000018222000A00001001008ED00E03C
:1000F00000000000000000000000000074B24E7A12
:1001000000200420F7010010C3010010C5010010F9
:10011000C1010010C1010010C1010010C101001097
:10012000C1010010C1010010C1010010C701001081
:10013000C1010010C1010010C9010010CB01001065
:10014000CD010010CD010010CD010010CD01001037
:10015000CD010010CD010010CD010010CD01001027
:10016000CD010010CD010010CD010010CD01001017
:10017000CD010010CD010010CD010010CD01001007
:10018000CD010010CD010010CD010010CD010010F7
:10019000CD010010CD010010CD010010CD010010E7
:1001A000CD010010CD010010CD010010CD010010D7
:1001B000CD010010CD010010CD010010CD010010C7
:1001C00000BE00BE00BE00BE00BE00BE00F04BF888
:1001D000103800BEF2EB88711CAD00103CAD001071
:1001E0003402001090A31AE700202149086006C8D5
:1001F00081F3088810471F48006800282FD10DA4FC
:100200000ECC002902D000F012F8F9E71A491B4A77
:10021000002000E001C19142FCD1194988471949E9
:1002200088471949884700BEFDE701C901C29A42C3
:10023000FBD370473CAD0010C000002060050020DB
:10024000DCB100100000042000000420DCB100102C
:1002500000100420001004200000000070470B482C
:1002600004F022FC0047EFF30580C0B270470000A5
:1002700008ED00E0000000D060050020EC12012035
:10028000DD3300100D0300109933001057560000A5
:1002900006005250ABB3605360A5001006005250E8
:1002A000861C030270A50010060052505422A29D25
:1002B0007CA5001005005250DE65F468DCB100102A
:1002C000F8B5C04610B5064C2378002B07D1054B76
:1002D000002B02D0044800E000BF0123237010BDB2
:1002E000680600200000000008890010044B10B5CB
:1002F000002B03D00349044800E000BF10BDC046F6
:10030000000000006C06002008890010F0B5C64609
:1003100000B584B005F070FC00230022802180200D
:1003200000F06AFA00F054FF00F00EF9344F380084
:1003300000F01AFBF82636020623320012211E2096
:1003400000F0C8FA00240294012501951F23984665
:100350000093103B5F220F210A2000F083FC0294DF
:10036000022301930096743305220A21052000F030
:1003700079FC029401954346009313337D22282192
:10038000692000F0E3FC0194009533000A22142157
:100390006E2000F053FD019500951A4B05221421A3
:1003A0006E2000F04BFD184D019700942B00174A6A
:1003B0001E210A2000F0C0FE0197FC23DB00009301
:1003C0002B00134A3C210A2000F0B6FE019700964C
:1003D0002B00104A50210A2000F0AEFE0E4800F01B
:1003E000E1F90E4C200002F0FFFB200002F0FCFBC4
:1003F00000F058FF002004B004BC9046F0BDC04699
:10040000FFFF0000E0FF00006004002008890010EA
:10041000148900102089001024100020DC05000041
:1004200030B583B06B46D91D0870D0242406202532
:10043000A56180231B0163610122034808F054FA7F
:10044000656103B030BDC04600C0034000B583B055
:100450006B46D91D0870D0231B0620229A6180228A
:1004600012019A610122024808F03EFA03B000BD71
:1004700000C0034070B5D0242406202363616420AB
:1004800002F0B2FB80256D01A561642002F0ACFB97
:100490006561642002F0A8FB70BD000070B52248C1
:1004A00005F06CFB052001F0F5FAD0242406202588
:1004B0006562052001F0EEFA65620C2001F0EAFAAF
:1004C00080235B0163620B2001F0E4FA80231B01AF
:1004D00063621649164801F0E7F90121062001F090
:1004E000A7FA0121072001F0A3FA04210D2001F051
:1004F0009FFA104A88236421D1500F490B682822A3
:1005000053401B041B0C0D4A13600968A023DB0336
:100510004B401B0C1B041360094B1A6801239343C7
:10052000084A136070BDC0462C8900108096980060
:1005300000C00340000005408400054084100540D1
:10054000780005407810054010B5FFF7A7FFFFF7CA
:1005500091FF0120FFF77AFF142002F045FB1120E4
:10056000FFF774FF322002F03FFBB120FFF76EFF70
:100570000220FFF755FF3520FFF752FF3620FFF727
:100580004FFFB220FFF762FF0220FFF749FF35203F
:10059000FFF746FF3620FFF743FFB320FFF756FF74
:1005A0000220FFF73DFF3520FFF73AFF3620FFF727
:1005B00037FF0220FFF734FF3520FFF731FF3620E9
:1005C000FFF72EFFB420FFF741FF0320FFF728FFBE
:1005D000BB20FFF73BFF1F20FFF722FFC020FFF7E4
:1005E00035FFA220FFF71CFF0220FFF719FF842030
:1005F000FFF716FFC120FFF729FFC520FFF710FF07
:10060000C220FFF723FF0D20FFF70AFF0020FFF7AE
:1006100007FFC320FFF71AFF8D20FFF701FF2A20F5
:10062000FFF7FEFEC420FFF711FF8D20FFF7F8FE55
:10063000EE20FFF7F5FEC520FFF708FF0A20FFF7C1
:10064000EFFE3620FFF702FF6820FFF7E9FEE0200B
:10065000FFF7FCFE1220FFF7E3FE1C20FFF7E0FE91
:100660001020FFF7DDFE1820FFF7DAFE3320FFF73A
:10067000D7FE2C20FFF7D4FE2520FFF7D1FE28203F
:10068000FFF7CEFE2820FFF7CBFE2720FFF7C8FE9E
:100690002F20FFF7C5FE3C20FFF7C2FE0020FFF72A
:1006A000BFFE0320FFF7BCFE0320FFF7B9FE1020BA
:1006B000FFF7B6FEE120FFF7C9FE1220FFF7B0FEFC
:1006C0001C20FFF7ADFE1020FFF7AAFE1820FFF751
:1006D000A7FE2D20FFF7A4FE2820FFF7A1FE232070
:1006E000FFF79EFE2820FFF79BFE2820FFF798FECD
:1006F0002620FFF795FE2F20FFF792FE3B20FFF705
:100700008FFE0020FFF78CFE0320FFF789FE0320F9
:10071000FFF786FE1020FFF783FEF020FFF796FE1E
:100720000120FFF77DFEF620FFF790FE0020FFF787
:1007300077FE3A20FFF78AFE0520FFF771FE292099
:10074000FFF784FE322002F04FFA10BDF8B50130F9
:1007500087B2013296B202318DB202339CB22A20A6
:10076000FFF774FE380AFFF75BFEF8B2FFF758FE9A
:10077000300AFFF755FEF0B2FFF752FE2B20FFF7CD
:1007800065FE280AFFF74CFEE8B2FFF749FE200A93
:10079000FFF746FEE0B2FFF743FE2C20FFF756FEC0
:1007A000F8BD000010B5124CA544010080221202D1
:1007B000684605F0D1F87F237F2200210020FFF753
:1007C000C5FFD0231B06802212015A6100247F2C12
:1007D00009D82102802269445200064808F084F8B2
:1007E0000134A4B2F3E780235B029D4410BDC046F0
:1007F0000000FFFF00C0034070B50E4C80256D0265
:1008000060530D4D61530D4D62530D4D6353012ADD
:1008100001D0032A04D1074B074A9852023A995251
:10082000044B80225202995A034A9A5A054805F00D
:10083000D7F970BD2410002002000100040001005F
:10084000060001004489001010B51D4C80235B0296
:10085000E35A83421AD31B4BE35A8B4216D313023B
:10086000120A1A4392B2164C174BE35A022B16D0B7
:10087000032B1AD0012B0DD080281BD8802919D822
:10088000C901401840000E4BC25202E00F4805F06B
:1008900075F910BD7F235B1A010098B2ECE77F2346
:1008A000181A80B2591A89B2E6E77F231B1A08008A
:1008B00099B2E1E70A000100054805F091F9E8E77F
:1008C00024100020020001000400010058890010DB
:1008D00080890010F0B5D6464F464646C0B50700A1
:1008E0008946924698461D4A80235B02D35A83422A
:1008F00005D31B4BD35A8B4201D3002629E04A462D
:100900003900184805F06CF91CBC90469946A2467F
:10091000F0BD0134A4B2444519D2BD190F4A802359
:100920005B02D35A9D42F4DC4B461B1911000C4A62
:100930008A5A9342EDDCA8B24B46E11889B20139DC
:1009400089B2013880B25246FFF77EFFE1E70136F7
:10095000B6B24645D8D20024DDE7C04624100020B8
:1009600002000100A089001010B50402000A04432F
:10097000A4B200200EE04343D3185B0009495C5247
:10098000013292B2074980235B02CB5A9342F2D8DC
:10099000013080B2034A044BD35A834201D900226A
:1009A000F0E710BD2410002002000100F0B5DE4683
:1009B00057464E464546E0B587B004000E00150088
:1009C0001F0010AB1B889B4611AB1B88994612ABCE
:1009D0001B789846A04A80235B02D35A83422AD3CD
:1009E00011009E4A8A5AB24225D3AB4223D3BA425F
:1009F00021D3A84229D0BE4261D00597B246B81B88
:100A000004F08AFB06000F0001950494281B04F0F3
:100A100083FB02000B003000390004F0EEFA029074
:100A20000391AC4200D2CBE00024049B9A4643469B
:100A3000A8461D00E5E08A4805F0A0F807B03CBCD8
:100A400090469946A246AB46F0BDBE421BD34546F2
:100A500023E04B465A4631002000FFF73BFF0136AA
:100A6000B6B2BE42EAD8012DF3D10321300004F022
:100A70006FF889B20029F2D14B465A463100200066
:100A8000FFF728FFEBE74546EBE74B465A463900B0
:100A90002000FFF71FFF0137BFB2B742CED8012DAC
:100AA000F3D10321380004F053F889B20029F2D1C0
:100AB0004B465A4639002000FFF70CFFEBE7A842EF
:100AC0001BD3474623E04B465A4631002000FFF730
:100AD00001FF0134A4B2AC42B0D8012FF3D10321FD
:100AE000200004F035F889B20029F2D14B465A466D
:100AF00031002000FFF7EEFEEBE74746EBE74B4601
:100B00005A4631002800FFF7E5FE0135ADB2A54297
:100B100094D8012FF3D10321280004F019F889B2E9
:100B20000029F2D14B465A4631002800FFF7D2FE89
:100B3000EBE7300004F0F0FA029A039B04F07BFA32
:100B400006000F00504604F0E7FA32003B0004F0C4
:100B50004BFA04F01DFB81B24346E81880B24B46C5
:100B60005A46FFF7B7FE0135ADB22E00049B5B1964
:100B7000019A9A4200DA61E7012CDAD103212800B8
:100B800003F0E6FF89B20029EDD1300004F0C4FA89
:100B9000029A039B04F04FFA06000F00504604F03F
:100BA000BBFA32003B0004F01FFA04F0F1FA81B204
:100BB0004346E81880B24B465A46FFF78BFED2E711
:100BC00000254346A0461C00CFE7300004F0A4FAFD
:100BD000029A039B04F02FFA06000F00059804F018
:100BE0009BFA32003B0004F0FFF904F0D1FA81B225
:100BF0004346E01880B24B465A46FFF76BFE01347D
:100C0000A4B22600019B1B199A4500DA16E7012DB4
:100C1000DBD10321200003F09BFF89B20029EED134
:100C2000300004F079FA029A039B04F004FA0600FB
:100C30000F00059804F070FA32003B0004F0D4F97C
:100C400004F0A6FA81B24346E01880B24B465A46F9
:100C5000FFF740FED3E7C046241000200200010049
:100C6000CC890010F0B5DE4657464E464546E0B505
:100C700087B004000E0093461800059310AB1A8845
:100C8000039211AB1A88049212AB1A7890465A4616
:100C9000121BD11752184A40831BD9175B184B40BF
:100CA0001204120C91461B041B0C9A461300524668
:100CB0009D1A5C4525D901235B420193059B9E4209
:100CC00022D901235B420293002701374346012BBF
:100CD0001DD04346002B27D05C452CD06B005246DC
:100CE00052429A4205DC5246AD1A019A9446644437
:100CF000A4B29945E9DB4D44029B9C466644B6B2DA
:100D0000E3E701230193D9E701230293DCE7032101
:100D1000380003F0F5FE0029DBD1049B039A310073
:100D20002000FFF7D7FDD7E7049B039A310020008E
:100D3000FFF7D0FDD0E7059B9E42CFD107B03CBC6A
:100D400090469946A246AB46F0BD0000F0B5D646A7
:100D50004F464646C0B584B005000C0016001F0083
:100D60000CAB1B8898460DAB1B8899460EAB1878C8
:100D70002F4A80235B02D35AAB423ED311002D4A47
:100D80008A5AA24239D3B34237D3BA4235D3012863
:100D90004AD0002834D100239A4602934B4601934F
:100DA000434600932300320021002800FFF7FEFD98
:100DB000534602934B460193434600933B002A005F
:100DC00021002800FFF7F2FD534602934B460193A2
:100DD000434600933B00320039002800FFF7E6FD50
:100DE000534602934B460193434600933B00320027
:100DF00021003000FFF7DAFD02E00F4804F0BEFEEC
:100E000004B01CBC90469946A246F0BD0023029354
:100E10004B460193434600932300320021002800F3
:100E2000FFF7C4FD0134A4B2BC42EFD3E8E7C046EB
:100E30002410002002000100CC890010F0B5DE462D
:100E400057464E464546E0B587B001900091914621
:100E50009B4610AB1D8811AB1B78039301239B1A93
:100E60000293724A80235B02D35A834206D36F4AAD
:100E70006F4BD35A8B4201D3002469E06D4804F0D4
:100E80007DFE07B03CBC90469946A246AB46F0BDFD
:100E9000019EA31998B2009F3B004B449BB2984619
:100EA0002B005A4641460490FFF714FD33004B4493
:100EB0009BB29A460097E719BFB22B005A463900F9
:100EC0005046FFF707FD0196361BB6B22B005A4677
:100ED00041463000FFF7FEFC019B4A469B1A9AB23E
:100EE00090462B005A4639004046FFF7F3FC009F1E
:100EF0004A46BF1ABFB22B005A4639003000FFF7EE
:100F0000E9FC009B1E1BB6B22B005A46310040463E
:100F1000FFF7E0FC2B005A4639000498FFF7DAFC93
:100F20002B005A4631005046FFF7D4FC029A002AA3
:100F300074DB4B46E31A5B000533029A94469C44EB
:100F4000634602934B46013B9BB299460134A4B2DF
:100F50004C4596D2039B002B9AD0039B012BE5D1E5
:100F600026004B4605935F46A34650E0019C2300B4
:100F70005B4498B2009BF31899B28A462B003A0062
:100F80000490FFF7A7FC01943419A4B2009A110051
:100F9000594489B289462B003A002000FFF79AFC99
:100FA000019B59465B1A99B288462B003A0051467C
:100FB0004046FFF78FFC019B9B1B99B28A462B0092
:100FC0003A0049465046FFF785FC009A931B99B2B8
:100FD00089462B003A004046FFF77CFC009A5B46AE
:100FE000D31A9BB298462B003A0041465046FFF771
:100FF00071FC2B003A0049460498FFF76BFC2B006C
:101000003A0041462000FFF765FC0136B6B2059B69
:10101000B342ABD25C469946BB4687E763000333D5
:1010200094469C446346029390E7C04624100020F7
:1010300002000100F0890010F8B5DE4657464E4622
:101040004546E0B581468A461F000AAB1B889B4691
:101050000BAB1B889846344980235B02CB5A8342F2
:1010600015D3324BCB5A534511D33D89F888C30869
:1010700007210140481E81415B186B439BB2203A17
:1010800015005D433B689C466544002646E02848C1
:1010900004F074FD3CBC90469946A246AB46F8BDB0
:1010A000297807222240802313410B4212D0534655
:1010B000F11889B24B46E01880B25A46FFF7C4FBDC
:1010C00008E05346F11889B24B46E01880B2424618
:1010D000FFF7BAFB07232340072B18D00134A4B233
:1010E000FB88A34215D9134B9845D9D029780722FC
:1010F0002240802313410B42E3D05346F11889B2BA
:101100004B46E01880B25A46FFF79EFBE2E70135F6
:10111000E4E75B0700D001350136B6B23B89B34244
:10112000B8D90024DCE7C0462410002002000100EA
:10113000208A0010FFFF0000F0B5DE464F4646460D
:10114000C0B584B00290039191461D000CAB1B8882
:101150009B460DAB1B8898460E0004000EE0012351
:101160009C46E144434601935B4600932B003100CB
:101170002000FFF761FFEB881C19A4B24B461A78D8
:10118000002A1AD0E98860180F4B9C4680235B0226
:101190006746FB5A984203DD2B899E19B6B2029C22
:1011A0002B89F3180848844608486746385A834212
:1011B000D5DD0C19A4B2039ED1E704B01CBC904647
:1011C0009946A346F0BDC04624100020020001004D
:1011D00010B5334804F0D2FC082000F05BFCD024AA
:1011E000240680235B00A36200220121082000F076
:1011F00037FC042000F04EFC1023A36200220121E2
:10120000042000F02DFC032000F044FC0823A3621E
:1012100000220121032000F023FC022000F03AFC10
:101220000423A36200220121022000F019FC1220F5
:1012300000F030FC8023DB02A36200220121122097
:1012400000F00EFC142000F025FC80235B03A36259
:1012500000220121142000F003FC102000F01AFCF1
:1012600080235B02A36200220121102000F0F8FB22
:10127000132000F00FFC80231B03A3620022012136
:10128000132000F0EDFB112000F004FC80239B02F2
:10129000A36200220121112000F0E2FB10BDC04634
:1012A0002C960010F0B5DE4657464E464546E0B552
:1012B00087B0E848FFF758FB012402940194002509
:1012C00000951F23732210215F20FFF73FFD02943A
:1012D000019400953A2373222B215F20FFF736FDFE
:1012E0000294019400955523732246215F20FFF755
:1012F0002DFD0294019400957023732261215F20DB
:10130000FFF724FD02940194009532233222282114
:101310001E20FFF71BFD02940194009548231C2218
:1013200034211220FFF712FD029401940095482306
:101330003E2234213420FFF709FD029401940095E8
:10134000542332224A211E20FFF700FD019400940D
:1013500000230A223E212820FFF770FDBE48FFF738
:1013600021FABE4804F00AFC00239B469A4699469F
:10137000984605930027002600248AE10A2001F000
:1013800033FCD0231B065B68DB0500D591E101230C
:1013900002930193FC23DB0000931F23732210218F
:1013A0005F20FFF7D3FCAC48FFF7FCF9AC4804F032
:1013B000E5FB01347DE101230293019300230093B7
:1013C0001F33732210215F20FFF7C0FCA248FFF7F4
:1013D000E9F900246DE10A2001F006FCD0231B0688
:1013E0005B68DB0600D574E1012302930193FC23C3
:1013F000DB0000933A2373222B215F20FFF7A6FC2A
:101400009548FFF7CFF9974804F0B8FB013560E144
:10141000012302930193002300933A3373222B217B
:101420005F20FFF793FC8C48FFF7BCF9002550E1E3
:101430000A2001F0D9FBD0231B065B681B0700D5EF
:1014400057E1012302930193FC23DB000093552312
:10145000732246215F20FFF779FC7F48FFF7A2F94E
:10146000814804F08BFB013643E101230293019391
:10147000002300935533732246215F20FFF766FC5B
:101480007548FFF78FF9002633E10A2001F0ACFB25
:10149000D0231B065B685B0700D53AE1012302936A
:1014A0000193FC23DB0000937023732261215F20F2
:1014B000FFF74CFC6848FFF775F96C4804F05EFBD9
:1014C000013726E101230293019300230093703337
:1014D000732261215F20FFF739FC5F48FFF762F953
:1014E000002716E10A2001F07FFBD0231B065B6872
:1014F0005B0300D51FE1012302930193FC23DB0072
:1015000000933223322228211E20FFF71FFC52486D
:10151000FFF748F9564804F031FB012398460AE1E9
:1015200002930193002300933233322228211E209C
:10153000FFF70CFC4848FFF735F900239846FAE01E
:101540000A2001F051FBD0231B065B68DB0300D5AA
:1015500003E1012302930193FC23DB000093482362
:101560001C2234211220FFF7F1FB3B48FFF71AF948
:10157000404804F003FB01239946EEE002930193F7
:101580000023009348331C2234211220FFF7DEFB96
:101590003148FFF707F900239946DEE00A2001F001
:1015A00023FBD0231B065B681B0300D5E7E0012368
:1015B00002930193FC23DB00009348233E22342155
:1015C0003420FFF7C3FB2448FFF7ECF82A4804F067
:1015D000D5FA01239A46D2E00293019300230093A7
:1015E00048333E2234213420FFF7B0FB1A48FFF77E
:1015F000D9F800239A46C2E00A2001F0F5FAD02378
:101600001B065B68DB0200D5CBE00123029301934C
:10161000FC23DB000093542332224A211E20FFF7D3
:1016200095FB0D48FFF7BEF8144804F0A7FA012314
:101630009B46B6E002930193002300935433322279
:101640004A211E20FFF782FB0348FFF7ABF8002377
:101650009B46A6E0FFFF00002410002038960010F3
:1016600044960010509600105C960010689600108A
:1016700074960010809600108C9600109C960010B6
:10168000D0231B065B689B0303D5059B012B00D170
:10169000ADE0D0231B065B68DB0502D4002C00D133
:1016A0006CE6D0231B065B68DB0502D5012C00D15C
:1016B00081E6D0231B065B68DB0602D4002D00D137
:1016C00089E6D0231B065B68DB0602D5012D00D11D
:1016D0009EE6D0231B065B681B0702D4002E00D1B8
:1016E000A6E6D0231B065B681B0702D5012E00D19E
:1016F000BBE6D0231B065B685B0702D4002F00D13A
:10170000C3E6D0231B065B685B0702D5012F00D11F
:10171000D8E6D0231B065B685B0303D44346002B4B
:1017200000D1DFE6D0231B065B685B0303D543468D
:10173000012B00D1F4E6D0231B065B68DB0303D446
:101740004B46002B00D1FBE6D0231B065B68DB0376
:1017500003D54B46012B00D110E7D0231B065B6855
:101760001B0303D45346002B00D117E7D0231B06DD
:101770005B681B0303D55346012B00D12CE7D02314
:101780001B065B68DB0203D45B46002B00D133E70A
:10179000D0231B065B68DB0203D55B46012B00D11F
:1017A00048E7D0231B065B689B0300D568E7059BD1
:1017B000002B00D064E70A2001F016FAD0231B06A4
:1017C0005B689B0300D564E7FC2301220192009231
:1017D000DB0009323E212820FFF730FB0B48FEF7E3
:1017E000E1FF0B4804F0CAF90123059351E7019387
:1017F000009300230A223E212820FFF71FFB034805
:10180000FEF7D0FF0023059343E7C04624100020D5
:10181000A8960010F0B5D646474680B583B08246FC
:101820008846062001F070FF0700022400E02C002B
:10183000FE2C1DD801970026A51C28024246002335
:10184000002103F0C9FF002904D1B142EFD1019B6F
:101850009842ECD980256D00012D0CD96E1E210017
:101860007143380003F074F9404504D83500F3E7BC
:1018700080256D00F0E753461C616B1E1B0252462B
:1018800012685340FF22120213408020400152464A
:101890001043036029006143380003F059F903B095
:1018A0000CBC90469A46F0BD10B50400144B98420B
:1018B00022D080229202134B1A60134B1A60134BF2
:1018C0009B6810009843FAD12000FFF7A3FF22681D
:1018D00007235340CF221A4080235B0123431A6021
:1018E0002200243280239B011A4303211160043417
:1018F0001C430223236010BD80225202DBE7C04656
:1019000000C0034000E0004000F0004000C0004084
:10191000EFF3108072B6034B1B68002BFBD0BFF3B4
:101920005F8F70472C0100D0BFF35F8F024B002206
:101930001A6080F3108870472C0100D0F8B50600BB
:101940000C001500FFF7E4FFE308F718F15C07222D
:101950002240012393400B4205D1DBB20B433B7085
:10196000FFF7E2FFF8BD2100280001F0B3FDF0B55C
:1019700083B00600019114001F00FFF7C9FFBC42AD
:101980000ED8E308F518F35C0721214001228A40B4
:101990001A4201D00134F2E7D2B21A432A7001E0B0
:1019A00001246442FFF7C0FF002C02DB200003B0DB
:1019B000F0BD019B002BF9D0089801F08BFD0000D1
:1019C000034B1B6802201840431E9841C0B2704769
:1019D00000C0064000231F2B08D8054A9A18920021
:1019E000BFF35F8F002111600133F4E77047C046F9
:1019F00040000034054A1078431CDBB21370172BEB
:101A000002D9130010221A707047C0466C040020DF
:101A100000B583B00100044B00931F231822034834
:101A2000FFF7A5FF03B000BDB8960010280B0020FB
:101A300010B58300084A944663441C684022624003
:101A4000C02414408022520113431C60C000034B89
:101A50009C466044416010BD04C00140004001400C
:101A600080000B4B9C46604400290DD00823002ABF
:101A70000CD004221343026853400C2213408022EE
:101A800052011043036070470023F0E70022F1E7A2
:101A900004C0014010B501238340D0221206936296
:101AA00093610521FFF7C4FF10BD0000074B9B6841
:101AB000103080001950BFF35F8FBFF35F8F044B6E
:101AC0000021196082F310887047C04600ED00E0E5
:101AD000240100D010B5091A0B1F0A4A944661442C
:101AE000094A914208D8DA0706D45B105B055B0D02
:101AF0000648184380B210BD054B064A9921064896
:101B000001F04EFCFC070000FE0F000000E0FFFFAC
:101B1000D4960010009900100497001010B5091A0F
:101B200004394C08090B08D14905490D064A1143EF
:101B30000180064B2343438010BD054B054AA1217C
:101B4000054801F02DFCC04600F0FFFF00F8FFFF44
:101B50003C9700100C99001004970010012383405B
:101B6000034A10681840431E9841C0B27047C046EF
:101B700000E100E0002904D0034B1860034B18601B
:101B80007047034B1860FBE780E200E000E100E0F3
:101B900080E100E010B5012383401800FFF7EAFF61
:101BA00010BD000001238340014A13607047C04606
:101BB00000E200E0024B9B6810308000C058704784
:101BC00000ED00E010B5FFF7F5FF002805D0054B4C
:101BD000C01A2F2803D8012010BD0020FCE70020E8
:101BE000FAE7C0467004002070B504000D00EFF362
:101BF000108672B60C4B1B68002BFBD0BFF35F8FB7
:101C00002000FFF7D7FF094B984201D0A84205D129
:101C1000320029002000FFF749FF70BD044B054A40
:101C20007C21054801F0BCFB240100D0CD0100104F
:101C30004C970010E498001004970010F0B5DE46B1
:101C400057464E464546E0B589B08146019115009C
:101C5000EFF3108A72B6744B1B68002BFBD0BFF3F6
:101C60005F8F724B0027DF57002F40DB7C00E419A9
:101C7000A4006F4824180622A2566C4B1A706D4BB4
:101C80009A684B4610339B00D35898461E001B1A87
:101C90002F2B38D9684B98452FD105AE674B338031
:101CA0007B009B46D8198000614B98464044023027
:101CB0006349FFF70FFF7080624BB380FF23B3715E
:101CC000F571019BB3605F44BF0047440ECE0EC761
:101CD00001231C43A046524641464846FFF7E6FE14
:101CE00009B03CBC90469946A246AB46F0BD564B67
:101CF000564ACD21564801F053FB564B534AD42146
:101D0000534801F04DFBC04340440C2102F020FF3A
:101D1000002912D101239E43B34633000026DA790D
:101D2000AA4211D90621595600290CDB4A00521843
:101D300092001E003E4B9B18F1E7474B434AE021BF
:101D4000434801F02DFB1E00002E3BD005AB434A5B
:101D50001A80813A5A800623F3560293002B18DA30
:101D6000BD20000205AB9B469880029A9A71DD71F6
:101D7000019A0792301D2100FFF7ACFEB080B771C9
:101D80007B00DB199B002A4FFF185B4607CB07C778
:101D9000A1E77800C0198000254BC0180430321D1F
:101DA000B388D90A1C2907D15905491502314900C0
:101DB0005118FFF78FFED5E7294B2A4AA72124485F
:101DC00001F0EEFA05AE1D4B33807B000293D8196B
:101DD0008000174A9046020042440392901C184922
:101DE000FFF778FE7080039A101D5946FFF772FEC8
:101DF000B0801D4B5A464146521A524153431B0D67
:101E0000B371F571019AB260029B9C466744BF00B2
:101E100047440ECE0EC7114B5A461380813B538068
:101E200001231C43A04656E7240100D01E100020C9
:101E30007004002000ED00E0CD01001000A1FFFFC4
:101E4000A004002000BDFFFF84970010349900100B
:101E500004970010AC970010D497001001480000C0
:101E60004898001024990010AAAA0000F0B5CE46A8
:101E7000474680B583B006000D00EFF3108872B6B8
:101E8000564B1B68002BFBD0BFF35F8F544B9A68F7
:101E900034001034A300D758524B9F4207D0AF42B2
:101EA00000D199E00197504BFB1A2F2B09D94246DC
:101EB00039003000FFF7FAFD03B00CBC904699469C
:101EC000F0BD3000FFF74AFE814600213000FFF7E9
:101ED00061FEBFF35F8FFEF7C6F9002801D0844290
:101EE00011D10123019C9C430022A368AB4212D074
:101EF0000622A256002A0DDB53009B189B002200ED
:101F0000394CE418F1E72C21384B394AFF31394874
:101F100001F046FA2200AB4257D106256557002D45
:101F200039DB6B005B199A002F4B9B189A68A260F3
:101F3000DA79E27106229A56A2719B795BB2002B84
:101F400010DABD200002A0806B005B199B00264ABE
:101F5000D318294A11789971157049463000FFF756
:101F600019FEA4E7201D6B005B199B001E4A9B18FD
:101F70001A1D9B88D90A1C2907D159054915023118
:101F800049005118FFF7A6FDDDE71C4B1C4AA721AD
:101F9000184801F005FA002812D1002A0ED0FF23BC
:101FA0009371184B9380144A1378A371164B0E4902
:101FB000641A644163431B0D1370CEE7094FF2E7C7
:101FC000201D1249FFF7AAFDC7E76021104B084A00
:101FD000FF31084801F0E4F9024F68E7240100D01E
:101FE00000ED00E0CD0100107004002060980010AA
:101FF0004C990010049700101E1000204898001003
:102000002499001000BDFFFFAAAA0000AA04002026
:1020100084980010F8B50400012606432D4BF31AEE
:102020002F2B28D8FEF71FF900282BD0EFF31087AD
:1020300072B6294B1B68002BFBD0BFF35F8F274D77
:1020400022002449521A524155432D0D6DB2244BA2
:102050009B6880001B58B3421BD00022032A32D851
:1020600053009B189B001B49CB189B795BB2AB427A
:102070001FD00132F2E7C2211A4B1B4A49001B480C
:1020800001F08EF988211A4B174AFF31174801F0E9
:1020900087F9134B9B68174A1A50174B1A78A2718D
:1020A0001D70BFF35F8F0C4B00221A6087F31088FE
:1020B000F8BD08005300991889004118FF268E7159
:1020C0000E4A8A80E9E7CC210D4B074A49000748B0
:1020D00001F066F970040020240100D0AAAA0000D3
:1020E00000ED00E08C98001060990010049700103B
:1020F000B4980010CD0100101E10002000BDFFFF9D
:10210000C09800100022044B02E0044902C30132CF
:10211000072AFAD97047C04600E400E0808080803A
:1021200000B583B00100D0231B061B680648C01809
:10213000064B009305230022FFF719FC002801DB62
:102140001F23181A03B000BD18100020C8980010F3
:10215000024B9C4661448900016070474000003496
:1021600070B505000C00080000F0CEFD200000F066
:10217000B1FE0849200000F0F1FDFFF73BFC064BE3
:102180009C466044800068602C75A400034BE550B9
:1021900070BDC046A524001040000034CC0F0020C4
:1021A0000A4B1A68EFF3108172B61368002BFCD04B
:1021B000BFF35F8F054B1B68BFF35F8F00221A6070
:1021C00081F3108840BF002000217047E80F0020F5
:1021D00010B5002922D003681B7B99421ED8174BEB
:1021E0009C466144090183689C4661440C684968C7
:1021F000002A19D003681B7B9A4215D883680F48C0
:102200008446624412019A18106853680200012043
:102210008B4201D80ED00020C0B210BD084B094A35
:102220003B21094801F0BCF8054B064A3B21064812
:1022300001F0B6F8A242EFD8EDE7C046FFFFFF0F6E
:10224000C4990010849C00109099001010B50029CA
:102250001ED0037B99421BD84B005B18033B0468DC
:10226000A4466344002919D0002A1DD0914221D0F0
:10227000002A25D0047BA24222D80468500080188E
:10228000033820188170197800291FD11A7010BDE9
:10229000104B114A6821114801F082F8104B114A85
:1022A0006F310E4801F07CF80F4B0E4A70210B483D
:1022B00001F076F80D4B0B4A7121084801F070F8D7
:1022C000044B054A6821054801F06AF841701A700C
:1022D000DDE7C046F8990010449C0010149A0010E5
:1022E000589A0010509C0010649A0010709A0010C8
:1022F00070B506000D001400002914D0002A14D077
:10230000806873689847002806D0220029003000B2
:10231000FFF79CFF280007E02A0021003000FFF7AC
:1023200095FF200000E0100070BD0800FCE70000F1
:10233000F0B583B00500009201930AAB1C780BAB9B
:102340001F78002C26D003685A7B944207D10123C2
:10235000002B19D1002C3BD1200003B0F0BD002C84
:102360000CD01A7B944209D81A6863001B19033BEE
:10237000D3189B78002BEBD00123E9E73E4B3F4A73
:1023800068213F4801F00CF83E4B3F4A65213F4829
:1023900001F006F803689C7B002CDBD012D01A7B7E
:1023A00094420FD862001219033A19688C466244AD
:1023B00051789973002900D1D97300239370537019
:1023C0001370C7E72C4B2D4A68212D4800F0E8FF19
:1023D000002C3AD02B681B7B9C4236D82C4BE31840
:1023E0001B01AA6894466344009A1A60019A5A60D5
:1023F000089A9A60099ADA602E68002C2BD030D0A7
:10240000337B9C422DD863001B19033B32689446F2
:10241000634400229A705A701A70717B2200300057
:10242000FFF766FF7073844200D095E7287D009A1D
:10243000019B00F0DBFC061E01D0002F17D00C9B87
:10244000002B00D188E71E7086E7124B124A3B2111
:102450000E4800F0A5FF114B114AA521084800F0D5
:102460009FFF054B054A6821054800F099FF286841
:10247000210000F0E3FEE2E7F8990010449C001010
:10248000149A0010889A0010BC9C001090990010BB
:10249000FFFFFF0FC4990010849C00108C9900105E
:1024A000649C0010F0B5DE4657464E464546E0B502
:1024B0008BB00990002308938200B34BD6583700A5
:1024C00052E0B24BB24A3F21B24800F069FFB24B32
:1024D000B24A3B21B24800F063FF002901D1002835
:1024E00069D10021404600F09FFEA04219D12A6820
:1024F0006B6806920793AB689846EB689A4643462A
:10250000002B14D0002C18D03B681B7B9C4214D8A5
:10251000631EFA68D35C08931B02184338610020DD
:1025200015E0A04BA04A8C219D4800F039FF9F4B3D
:102530009D4A90219A4800F033FF974B9C4A4021D6
:10254000974800F02DFF00239A46984600207B68AC
:10255000BFF35F8F00221A6086F310884346002B7A
:1025600032D1002800D107E100F0DAFB02000B1E97
:10257000A7DB00200021069007917868EFF3108612
:1025800072B601680029FCD0BFF35F8F39688846B6
:102590004C7B002CD7D09AD0097B8C4297D88549A8
:1025A00065182D01B9688C46654428686968801AE9
:1025B0009941002991DD2A686B68099800F016FCA2
:1025C00000239A469846C2E7089B1B02234399467C
:1025D00051461800C04705000E007A68EFF3108BD3
:1025E00072B6136859424B41D9B2002BF9D1BFF3EF
:1025F0005F8F002E26DB002E52DD3B69002B53D06F
:102600004B4572D100F08CFB02000B1E73DB010006
:10261000180052197341984202D804D1914202D94C
:1026200001225242D317002B6BDB002104910131B0
:102630000391029451460191414600913800FFF701
:1026400077FE49E03B69002BD5D04B451CD1069A5B
:10265000079B10001900521BB341994202D804D1C4
:10266000904202D901225242D317002B12DB0021E3
:102670000491013103910294514601914146009128
:102680003800FFF755FE27E04B4B474A9F2144484F
:1026900000F086FE3D4B3E4A3F213E4800F080FE62
:1026A000002E01D1002DA8D13A68002C45D0537BD3
:1026B0009C422CD1012100293FD1D37B002B42D158
:1026C000D473002C52D03B681B7B9C424ED8FA68D6
:1026D000013C135D0133135500233B617A68BFF35E
:1026E0005F8F13608BF310883EE7334B2E4AA22195
:1026F0002B4800F055FE254B254A3F21254800F088
:102700004FFE224B224A3F21224800F049FE002C76
:102710000DD0137B9C420AD863001B19033B106841
:10272000844663449B78002BC5D00121C3E7234B2B
:10273000234A6821234800F033FE234B234AF62125
:10274000204800F02DFE002B0AD0117B8B4207D8C9
:102750005900CB18033B11688C4663445C70AFE7AB
:10276000164B174A6821174800F01AFE0A4B104A08
:1027700040210B4800F014FE0BB03CBC904699463B
:10278000A246AB46F0BDC046CC0F0020B09A001068
:102790002C9C0010CC9A0010C4990010849C00104E
:1027A000909900100C9B0010D49C0010249B0010EA
:1027B000909C0010FFFFFF0F309B0010F899001055
:1027C000449C0010149A00106C9B0010749C001024
:1027D00010B50A4B5B68002B04D00A210848FFF7AC
:1027E000B7FC10BD054C2300064A1021206800F0FC
:1027F0003BFC03212000FFF7B3FCEEE7B804002008
:10280000E80F0020D121001010B5064B5B68002BAB
:1028100001D0044810BD044B044A5C21044800F078
:10282000BFFDC046B8040020909B0010A49C00107F
:1028300090990010F0B5DE4657464E464546E0B545
:102840008BB0804616001F00149B9A46159B994634
:1028500016AB1B789B461F2302AA944663440022B2
:102860001A7032E0002809D042461268127B90426A
:1028700004D8421E4146C9688A5C48E0434B444A3A
:102880004021444800F08CFD0798002B75D05B4632
:10289000002B72D04946D04704000D0003000B43C3
:1028A00000D171E0002946DB00F03AFA06000F1E65
:1028B00055DB36196F41B94202D804D1B04202D972
:1028C00001267642F717002F4FDB43465A68EFF395
:1028D000108472B6136859424B41D9B20791002B4C
:1028E000F8D1BFF35F8F1F3302AA94466344049369
:1028F0000023039302934B46019353460093320007
:102900003B004046FFF714FD031EABD102004146D9
:102910004968BFF35F8F00250D6084F31088002B9A
:1029200029D01F2302A98C4663441B78002BABD10E
:1029300012021043A9E732003B00361BAF41BB42F5
:1029400002D804D1B24202D901267642F717002FED
:10295000BBDA114B114A3F21114800F021FD0E4B0B
:102960000E4A3F210E4800F01BFD0B4B0B4A3F2146
:102970000B4800F015FD012040420BB03CBC9046D6
:102980009946A246AB46F0BD0798F6E7C4990010F9
:10299000909C001090990010B09A00102C9C001090
:1029A000CC9A0010F8B504004268EFF3108572B6B7
:1029B000136858424341D8B2002BF9D1BFF35F8F5F
:1029C000CBB22268567BB3421BD10120002848D0ED
:1029D000206988422BD0090AC9B2002B2ED020686A
:1029E000007B83422AD8581EE668305C88422BD090
:1029F00000206368BFF35F8F00221A6085F31088A0
:102A0000F8BD002B0DD0167BB3420AD85E00F61835
:102A1000033E1768BC466644B678002ED6D0012027
:102A2000D4E7134B134A6821134800F0B9FC852101
:102A3000124B134A4900134800F0B2FC124B134AE0
:102A40004021104800F0ACFC1900100000F0F6FB2B
:102A50000028CED112210E4B094AFF31094800F05F
:102A60009FFC23698B42C4D100232361C1E7C04688
:102A7000F8990010449C0010149A0010B49B0010A8
:102A8000F09C001090990010C4990010909C0010C8
:102A9000D89B0010F0B587B006000F00FDF7E3FBF0
:102AA00000281FD106246442E517A4197D41BD42C8
:102AB00002D803D1B44201D900240025002D14DB33
:102AC0000494059500F02CF902000B1E13DBA41AE8
:102AD0009D41002D17DC14D03000390000F02CF996
:102AE00007B0F0BD234800F0F5FC234B234A3F21FB
:102AF000234800F055FC204B204A3F21204800F09D
:102B00004FFC002CE8D0FFF77FFE002302930193D7
:102B10001C4B0093049A059BFFF78CFE002818DAE3
:102B2000DAE7002300E00023002BD5D1164B1A680A
:102B3000EFF3108172B61368002BFCD0BFF35F8FE8
:102B4000114B1B68BFF35F8F00221A6081F310885E
:102B500020BF0499059A0D4B5B6A9A42E3D80B4853
:102B6000806A884203D29A42DBD00123DCE701234A
:102B7000DAE7C046DC9B0010B09A00102C9C0010D5
:102B8000CC9A0010A1210010E80F00200040054061
:102B9000F8B504000D0000F0C3F802000B1E10DBB6
:102BA00020002900801859418B4202D804D182426A
:102BB00002D901204042C117002908DBFFF76AFF54
:102BC000F8BD064B064A3F21064800F0E9FB034BDF
:102BD000034A3F21034800F0E3FBC046B09A0010CF
:102BE0002C9C0010CC9A001010B5FA229200002301
:102BF000002102F0F1FDFFF7CBFF10BD70B584B0EE
:102C000005000C00FFF700FE002302930193194B0F
:102C100000932A002300FFF70DFE061E12DC164B60
:102C20005B6A9C4209D8144A926AAA4208D29C4222
:102C300001D0012002E0002000E0002004B070BDBF
:102C40000120FBE720BFFFF7DFFD3100FFF7AAFE01
:102C5000094B5B6A9C4209D8074A926AAA4207D28A
:102C60009C4201D00120E9E70020E7E70020E5E7EA
:102C70000120E3E7A12100100040054070B5EFF30B
:102C800005833F2018401038EFF3108472B6194BBB
:102C90001B68002BFBD0BFF35F8F0123190081401D
:102CA000154A5163154A12781500C5402B4214D0BD
:102CB000114B5D6A8300124E9B599D4206D38300DF
:102CC000104D5B598A430D490A7007E00A4A031DFB
:102CD0009B0099589950002300E00023BFF35F8FB9
:102CE000044A0021116084F31088002B00D098471B
:102CF00070BDC046280100D00040054022100020D1
:102D0000F40F0020180A002010B50100024A034801
:102D1000FEF714FE10BDC046089D00101D100020D7
:102D2000044B5B6A034A906A1900536A9942F9D1CD
:102D30007047C04600400540074B5B6A8B4204D297
:102D4000054B5B6AFAE7044B5B6A8B4203D1024B8B
:102D50009B6A8342F7D370470040054070B504007A
:102D60000D00EFF3108672B61B4B1B68002BFBD0D7
:102D7000BFF35F8F002D1CD02000FEF71BFF174B09
:102D800083420BD019002000FEF72EFF0121200006
:102D9000FEF700FF0123A340114A1360A400114B6A
:102DA000E550BFF35F8F0C4B00221A6086F310884A
:102DB00070BDA2000B4B0021D1500122A2400A4954
:102DC0000B7893430B7005492000FFF74FF8002163
:102DD0002000FEF7DFFEE4E7280100D07D2C001084
:102DE00038600540180A002022100020F0B5DE46A9
:102DF00000B584B00400150001921E000293FFF795
:102E00008FFF03958E4202D84ED185424CD9EFF305
:102E1000108B72B6274B1B68002BFBD0BFF35F8F64
:102E2000254A17780125A540EBB23B431370234B8D
:102E30005D63221D92000199D150A20020490298A1
:102E400050501B6A2B4212D11C4B1B6C2B4208D0DA
:102E50000020BFF35F8F174B00221A608BF310889E
:102E600023E0184B184AC121184800F099FAFFF7DF
:102E700057FF8E4214D802D1039B834210D80E4BC9
:102E80001B78BB420ED00D4B1D625D631F200440BA
:102E90000123A3400E4A1360074B1F701E38D8E76A
:102EA0000020D6E70120D4E7012004B004BC9346FB
:102EB000F0BDC046280100D022100020004005408F
:102EC000F40F00202C9D00108C9D0010509D0010D0
:102ED00080E200E010B5EFF3108472B60A4B1B6875
:102EE000002BFBD0BFF35F8F01238340074A13629F
:102EF00007490A789A430A70BFF35F8F024B00229A
:102F00001A6084F3108810BD280100D000400540ED
:102F10002210002010B500291ED0037B99421BD837
:102F20004B005B18033B0468A4466344002919D096
:102F3000002A1DD0914221D0002A25D0047BA24234
:102F400022D804685000801803382018817019783E
:102F500000291FD11A7010BD104B114A6821114869
:102F600000F01EFA104B114A6F310E4800F018FAAB
:102F70000F4B0E4A70210B4800F012FA0D4B0B4A12
:102F80007121084800F00CFA044B054A68210548F5
:102F900000F006FA41701A70DDE7C046F89900109B
:102FA000509E0010149A0010589A00105C9E001059
:102FB000649A0010709A001070B506000D0014009D
:102FC000002914D0002A14D080687368984700281C
:102FD00006D0220029003000FFF79CFF280007E000
:102FE0002A0021003000FFF795FF200000E01000CC
:102FF00070BD0800FCE7000010B5002343730133E7
:103000008373037BC3730123027B9A4214D9002B81
:103010000CD0027B934209D85A00D218033A0168B7
:103020008C4662440133DBB25370EDE70B4B0C4A24
:1030300068210C4800F0B4F9002A09D0924207D860
:10304000016853009A18033A8A180023537010BD80
:10305000024B034A6821034800F0A2F9F8990010D6
:10306000509E0010149A001010B5017342608360E6
:10307000FFF7C2FF10BD000070B50400081E00D1AC
:1030800070BD002934D0237B994231D84B005B18A6
:10309000033B2268944663445A78002AF0D02DD02E
:1030A000237B9A422AD853009B18033B21688C4605
:1030B00063445D7800215970002825D0237B984215
:1030C00022D843001B18033B21688C46634400212F
:1030D000597001002000FFF76FFF06002900200053
:1030E000FFF7CAFF020031002000FFF765FFC7E7C6
:1030F000084B094A6821094800F052F9054B064A75
:103100006821064800F04CF9024B034A6821034845
:1031100000F046F9F8990010509E0010149A001023
:1031200070B505000C001600002928D02DD0037BB7
:1031300099422AD84B005B18033B026894466344CB
:103140005A78002A27D19A78002A2AD11978FFF7CD
:1031500093FF0300002E03D0EA7B002A27D1EC73F3
:10316000002B37D1002C49D02B7B9C4246D82B68B2
:1031700061000C19033C1C190023637070BD224BC5
:10318000224A3821224800F00BF9224B224A6821BA
:10319000224800F005F9224B1C4A3A211C4800F055
:1031A000FFF8204B194A3B21194800F0F9F8002A92
:1031B0000AD0297B8A4207D851008A18033A296825
:1031C0008C4662445470CAE7124B134A6821134874
:1031D00000F0E6F8002B0BD02A7B934208D843007E
:1031E0001B18033B2A689446634400229A70B9E78F
:1031F000084B094A6821094800F0D2F8054B064AF5
:103200006821064800F0CCF8A89D0010709E0010C0
:10321000B09D0010F8990010509E0010149A0010F4
:10322000E49D00100C9E001070B504000A00457B60
:103230002900FFF775FF6073280070BD70B50400AA
:10324000002966D0437B8B420ED0002911D0037B2E
:1032500099420ED84B005B18033B0268D018837864
:10326000002B0CD1002055E00121FFF7DDFF0120EC
:1032700050E0294B294A6821294800F091F8002B99
:103280001FD0227B93421CD825685A00D318033BD9
:10329000EA18EB5C8B421AD0002B1BD0227B9342A6
:1032A00018D85A00D318033B2268D21853788B429F
:1032B00016D0002BF0D11B4B1B4A67211B4800F096
:1032C0006FF8154B154A6821154800F069F84378E6
:1032D000137007E0104B114A6821114800F060F8A4
:1032E0004378537000238370437001222000FFF75E
:1032F00017FF0200617B814205D02000FFF75CFED2
:103300006073012006E00A4B074A6D21074800F070
:1033100047F8002070BDC046F8990010509E00107C
:10332000149A0010C0980010849E0010B09D0010E8
:10333000309E001010B50400FEF75CFB0100200079
:10334000FEF706FFFF232371BFF35F8F10BD10B59B
:103350000400FEF74FFB01002000FEF7F9FEFF23FB
:10336000237100236371BFF35F8F10BD034B9C4635
:10337000614489000160BFF35F8F704740000034F3
:1033800010B504000120FEF743FB01002000FFF709
:10339000EDFF10BD00BEFDE710B5FFF7FBFF00001D
:1033A00010B582B00C001900002A0CD0084B002A7E
:1033B0000BD00192009323000200064802F010FC9B
:1033C0000120FFF7E7FF044BF1E7034AF1E7C046AE
:1033D000609F0010709F00105489001070B52B4B37
:1033E0002B4A1A602B4B2C4A1A602C4B9A682A4B9A
:1033F0009343FAD12A4C2B4B9C4202D208CC9847DB
:10340000F9E700F001F9234B274A1A60234B9B6828
:10341000DB43DB01FAD1254B40229A675A671A67D2
:10342000DA66234C09E0234B234A83212348FFF724
:10343000B7FF2000FFF77EFF0834214B9C4209D2E2
:103440002368002BF5D0012BEDD12000FFF77FFF83
:103450000834F2E71B4CA1681B4DC022280002F083
:103460007BFAA560FCF7FFFE002800D000BEFEF747
:10347000B1FAFEF747FEFFF7ABF9144C144B9C4230
:1034800002D208CC9847F9E770BDC04600E0004082
:10349000BFCDFBFE00F00040FE7F3C0000C00040BE
:1034A0004805002058050020FFFFFF0100F0014003
:1034B00040050020A09F00100CA00010C09F00102D
:1034C0004805002000ED00E0000000205805002025
:1034D000600500200FB400B583B0084802F04EFB31
:1034E000049B002B07D005A90191180002F056FBA0
:1034F000034802F043FB0120FFF74CFFFC9F001044
:10350000C8890010F8B5DE4657464E464546E0B538
:1035100005000F0092461E000A9B9E424ED3330EBA
:10352000994636020A9A00233000494601F052FBC0
:1035300080466C006419A4002E4B9C46644463686A
:10354000834200D260602B1FDBB29B46012B3BD92C
:10355000C0239B012343802212011A60AB00264A3C
:103560009958002905D0506901F0F2FA013001386C
:10357000FDD153465A0123685A40E0231A40802364
:103580005B0123431A605A46012A28D980239B01F4
:103590002343802212011A6043466360424600239F
:1035A0003000494601F016FBAD00134B5851012085
:1035B0003CBC90469946A246AB46F8BD0F4B104A1C
:1035C0002D211048FFF7ECFE012FC1D1C0239B0134
:1035D000234303221A60A368DB07FCD5C9E72168EF
:1035E000794003220A401A60A3680122BA401A42B5
:1035F000FAD0CBE7008000402C0B00201CA000106C
:1036000070A0001030A0001030B583B00C2000F086
:1036100021F9FEF7D5F900280DD00023092B05D894
:1036200099002D4A2D4888500133F7E72A4B2C4A40
:103630005A6203B030BD2B4B00229A6700F07CF930
:10364000294B01221A60274B5B6C012BFBD1274BC6
:1036500003221A60234B9B6B012BFBD10133009398
:103660000433234A0121234800F054F80523009332
:10367000214A0121214800F04DF8214B00930022FE
:1036800002210420FFF73EFF1E4D00952B00002273
:1036900001210520FFF736FF104C00942300002283
:1036A00000210720FFF72EFF0094230000220021B5
:1036B0000820FFF727FF0A4B009323000022002178
:1036C0000920FFF71FFF00952B0000220021062094
:1036D000FFF718FFADE7C0462C0B0020006CDC02A2
:1036E0001BB70000008000403CB0004030B00040FC
:1036F000002F685900800240008C864700C00240BD
:10370000001BB700405973078000014BC058704739
:103710002C0B0020F0B5C64600B504000F00904603
:103720001D000C2001F014FA06003D4A42443D4BB6
:103730009A4243D843011B1A9901C91AC9000918B2
:103740008901404601F004FA0200103A98235B0018
:103750009A4239D86B1E062B3CD8069B013B062BA0
:1037600038D8069B9D423BD343461A09B2423DD30B
:103770002D04069B1E032E432368002B3CDB2A4BA3
:103780009C424AD080256D01284B1D60284B1D604E
:10379000284A92682B009343FAD12760A060221D2B
:1037A000C0239B01134321221A602268002AFCDAFD
:1037B000E66008221A6004BC9046F0BD1E4B1F4A0A
:1037C00011211F48FFF7ECFD1E4B1C4A19211C4814
:1037D000FFF7E6FD1C4B194A1C211948FFF7E0FDD5
:1037E0001A4B164A22211648FFF7DAFD184B134AE6
:1037F00025211348FFF7D4FD22683F231340BB4225
:10380000BDD1A3681B051B0D8342B8D1E368EE222E
:10381000D2021340B342B2D1CDE78025AD01B3E768
:1038200080E84BD380F8A93200C0024000E000409D
:1038300000F0004000C0004080A00010B4A10010C3
:10384000E0A0001018A1001034A1001080A1001009
:1038500098A1001080239B000343014AD362704764
:1038600000800540024B1A68024B5A607047C04600
:10387000C40F00200080054010B50200164B8020C8
:10388000C0051860154B1648186000290AD0154B62
:10389000E021C9041960002A09D1124B80221206C6
:1038A0001A6010BD0C4BE021C9041960F3E7500108
:1038B000801A8000801800010B4B186080235B0485
:1038C000984202D3084B094A1A60FFF7CBFF054B19
:1038D0008022D2051A60E4E700B0054008200140CC
:1038E000FCFF010000A00540C40F0020FFFFFF0007
:1038F00010B5030010000C4A8024E4051460002B6E
:103900000DD001221343094A094CD461094C5C4093
:103910001462516293620021FFF7AEFF10BD034BAA
:103920000022DA61F7E7C04600B00540008005409C
:10393000D3C007B02D3FF84F064BAA2212011A60E0
:103940002F22DA60044B054A1A60024B5B68002B99
:10395000FBDA7047004002400060024000B0FA000D
:10396000704710B5002802D00B684968984710BD11
:10397000010000200A681378303BDBB2092B08D81D
:1039800083001B185B00501C08601078C01830388A
:10399000F0E77047F0B5DE4657464E464546E0B57F
:1039A00083B093461F000C9B9A460D9C0E9B994634
:1039B0000F9B9B0703D0B8460F00060022E0019240
:1039C000A34688464E46B9460700B44207D2551C66
:1039D0004B4641462020B84701342A00F5E73D0018
:1039E0004F465C46019B9B46B1464646B84637006B
:1039F0002E0007E0013C551C5346185D4346390034
:103A0000B0472A00002CF5D135003E0047460F9BF9
:103A10009B0707D4100003B03CBC90469946A246D1
:103A2000AB46F0BDB0464E46B9462F005D46531B2F
:103A3000B342EFD2541C4B4641462020B8472200E7
:103A4000F5E7F0B5CE46474680B585B09446984632
:103A50000C9D0D9C0EAB1B789946109A119B129EE3
:103A6000B7071BD4002B08D0F70706D54F46002F09
:103A700002D10C37374200D0013B944208D21F2CB0
:103A800006D830272F550134F7E730272F5501345A
:103A9000F70703D59C4201D21F2CF6D9F70615D59E
:103AA000770505D4002C03D0944224D09C4222D028
:103AB0000F9A102A2BD00F9A102A30D00F9A022A70
:103AC00035D01F2C02D830222A5501341F2C05D89E
:103AD0004A46002A31D02D222A55013403960293FA
:103AE0000194009543466246FFF754FF05B00CBCB5
:103AF00090469946F0BD621E012C06D00F9F102FF4
:103B000001D01400D4E7023CD2E71400D0E7B2069B
:103B1000D1D41F2CCFD878222A550134D1E7B20650
:103B2000CCD51F2CCAD858222A550134C9E71F2CDE
:103B3000C7D860322A550134C3E7720703D52B2258
:103B40002A550134CAE73207C8D520222A55013444
:103B5000C4E7F0B5DE4657464E464546E0B593B05D
:103B600081468A46089209931CAB10CB1B789B4672
:103B70001E9D219B9846002C03D1102342469A4358
:103B800090468023DB0046461E4042461A4212D031
:103B9000002C22D000260EE03033D9B2771C0AABBD
:103BA00099552900200000F0D3FFAC4216D31F2FF7
:103BB00014D83E0004002900200000F0C9FFCBB259
:103BC000092BE9D94246920605D54121C918C9B247
:103BD0000A39C9B2E2E76121F8E7270043460693B4
:103BE000209B05931F9B049303955B4602930197CB
:103BF0000AAB0093099B089A51464846FFF721FFFC
:103C000013B03CBC90469946A246AB46F0BDF0B519
:103C1000DE4657464E464546E0B595B008900991B8
:103C20000A920B931E9E1F9C20AB1B789B46229BE7
:103C30009946239D269B9A463300234303D1103394
:103C400052469A4392468023DB0057461F40524615
:103C50001A4219D0330023432DD0002714E030330B
:103C6000DAB27B1C98460CABDA554A462B00300082
:103C7000210000F0AFFFA5421FD819D043461F2BEB
:103C80001BD8474606000C004A462B003000210096
:103C900000F0A0FFD3B2092BE1D95246920605D518
:103CA0004122D218D2B20A3AD2B2DAE76122F8E758
:103CB000B145E3D901E00023984653460693259B7E
:103CC0000593249B04934B4603935B460293434620
:103CD00001930CAB00930B9B0A9A09990898FFF784
:103CE000B0FE15B03CBC90469946A246AB46F0BD2E
:103CF000F0B5DE4657464E464546E0B591B08346A0
:103D00008A460C9298461A9C08941B9D099522009D
:103D10002B002000290001F0ECF9002800D0E5E09C
:103D200001225242D34B2000290001F0DDF9002886
:103D300000D0DBE001225242CF4B2000290001F0ED
:103D4000BDF9002800D0D1E000220023089D280002
:103D5000099E310001F0B2F9002800D0DDE008989A
:103D60000999069007918023DB001E9A1A400D9254
:103D70001E9A1A4201D106231C9306980799040043
:103D80000D000A000600024300D1CDE0080D4005F9
:103D9000400DBA4CA44660440A03120BB84B1343BF
:103DA0001F0001F0B9F9B74AB74B01F044F9B74A1F
:103DB000B74B01F019F904000D000022B54B30009B
:103DC000390001F008F9B44AB44B01F034F90200AB
:103DD0000B002000290001F007F901F0B5F9814638
:103DE00001F09AF904000D00AD4AAE4B01F023F941
:103DF0000022AD4B01F0F8F801F0A6F90600AB4A3D
:103E0000AB4B2000290001F016F904000D00300032
:103E100001F082F9A74AA84B01F00DF902000B004E
:103E20002000290001F0D7F804000D0002000B006B
:103E300001F001F90A900B91A04BF31800261F0521
:103E400022002B002000290001F0CEF80E900F91E7
:103E500022002B0000208021C90501F0BCF80400DD
:103E60000D000022964B0A980B9901F0C6F800222B
:103E7000944B01F0B9F802000B000A980B9901F07D
:103E8000BCF80022904B01F0AFF802000B000A983A
:103E90000B9901F0B2F802000B002000290001F09C
:103EA000A3F802000B000E980F9901F0A6F800226B
:103EB000734B01F099F832003B0001F0BCF80600AA
:103EC0000F0004000D00069A079B01F00DF9002871
:103ED0002CD001235B429C46E1440022794B300008
:103EE000390001F08AF804000D001FE01E9B0493C6
:103EF0001D9B03931C9B0293089A099B00920193BC
:103F000043460C9A5146584600F0F8F811B03CBCB4
:103F100090469946A246AB46F0BD069580231B0607
:103F20009C46664407961EE7002399464B4663333A
:103F3000C62B1FD804261E9B1B0527D52B00234309
:103F400010D0624A624B0698079901F0C5F8002824
:103F500000D183E000225F4B0698079901F0AEF88C
:103F600000287BD01C9B4B4506DD4A46981A431E11
:103F70001C9303E00526DEE700231C938023DB006F
:103F80001E9A1A431E920026002399461D9B9E42AC
:103F90006ED29F1B02231E9A1A400A921E9A134247
:103FA00002D0002E00D000274B46002B07D0220065
:103FB0002B000698079901F020F80690079100223F
:103FC00000230898099901F079F8002800D085E0CD
:103FD000414B1E9A1340049303971C9B0293069B2C
:103FE000079C0093019443460C9A5146584600F0B2
:103FF00085F8002E00D189E71E9B9B067AD54525C2
:10400000441C4346020051462800D8474B46DA1765
:104010009B18534005220592013E0496002203920C
:104020000A3202924A46D00F019000934346220082
:1040300051465846FFF78DFD0A9B002B00D165E7DE
:1040400002005F460C9E1D9D931BAB4254D2541C34
:10405000434651462020B8472200F5E71C9B002B21
:1040600094D00D9B002B91D01C9B013B1C938DE7A2
:1040700000278FE7FFFFEF7FFFFFEFFF01FCFFFF50
:104080000000F03FFB799F501344D33FB3C8608BCF
:10409000288AC63F0000F83F61436F63A787D23F7D
:1040A00071A379094F930A400000E03F1655B5BB54
:1040B000B16B0240EF39FAFE422EE63FFF030000EB
:1040C00000002C4000002440000018402D431CEB51
:1040D000E2361A3F80842E41FFF7FFFF069C079DC2
:1040E0002200290080200006844661440B000692CD
:1040F00007936DE7652583E7100007E7F0B5DE4617
:1041000057464E464546E0B595B006900791934612
:104110009946209F1E9A1F9B1000190000F0E9FF8E
:10412000002831D101225242BF4B1E981F9900F046
:10413000C5FF002837D101225242BC4B1E981F995F
:1041400000F0D2FF00283DD10022B94B1E981F99E4
:1041500000F0CAFF002850D10022B64B1E981F99CC
:1041600000F0ACFF002848D1002200231E981F99C0
:1041700000F0A4FF002850D100239846229B5B0545
:1041800000D4B6E0002458E0229B0393219B0293C5
:1041900003230193A84B00934B465A460799069870
:1041A000FFF7F8FB0EE1229B0393219B029304236C
:1041B0000193A24B00934B465A4607990698FFF786
:1041C000E9FBFFE00423229A1A4022990B4210D007
:1041D0009B4B002A0FD0042222990391219902912E
:1041E000019200934B465A4607990698FFF7D2FB77
:1041F000E8E0944BEDE70322EEE7229B0493219B3A
:10420000039302971E9B1F9C009301944B465A46B2
:1042100007990698FFF76CFDD4E01E9A1F9B0020BB
:10422000002100F0D8FE1E901F9101239846A5E7BB
:104230000CAB30221A55013F01341F2C01D8092F35
:10424000F6D81E981F9900F07FFF050000F064FF6C
:1042500002000B001E981F9900F0BDFEFA007A4B79
:104260009B181A685B680A920B9300F0E4FE0890B2
:10427000099100F08DFF060000F04AFF02000B00DC
:104280000898099900F0A7FE0890099100226F4B49
:1042900000F02AFF00282ED00136300000F038FF51
:1042A00002000B000A980B9900F00EFF002801D0C5
:1042B00001350026002F2CD1280000F02DFF020030
:1042C0000B001E981F9900F086FE06000F000022CA
:1042D0005E4B00F0F3FE002842D100225B4B300021
:1042E000390000F001FF00283AD1EB0738D501353D
:1042F00036E0062746E70022544B0898099900F05B
:10430000DDFE0028D6D1002E01D0F307D2D501362C
:10431000D0E7AA461F2C11D8013F0A21300000F037
:1043200017FC651C30310CAB19550A21300000F028
:104330000FFC092E26D906002C00EBE7554604E0B9
:104340000CAA302111551F0001341F2C02D87B1EEE
:10435000002FF5D11F2C03D80CAB2E221A55013497
:104360001F2C14D80A21280000F0CAFB661C30312B
:104370000CAB19550A21280000F0C2FB051E05D020
:104380003400EDE72B0055461C00DEE73400032324
:10439000229A1340012B1CD01F2C06D84346002B19
:1043A00032D00CAB2D221A550134229B0393219B52
:1043B000029301940CAB00934B465A46079906981A
:1043C000FFF7E8FA15B03CBC90469946A246AB46CA
:1043D000F0BD219B002B13D04346002B02D10C33A0
:1043E00013420FD0219B013B2193190003E00CAB3A
:1043F00030221A5501348C42CED21F2CF7D9CBE78C
:104400002199F8E72199F6E7229B5B0704D50CABCD
:104410002B221A550134C8E7229B1B07C5D50CABCC
:1044200020221A550134C0E7FFFFEFFFFFFFEF7FA7
:1044300065CDCD4165CDCDC1CCA10010D0A100107E
:10444000C4A10010C0A10010B8A300100000E03FFC
:10445000F0B5DE4657464E464546E0B593B0824637
:104460008B4690461193002900D1ECE20027554677
:10447000119B1878002800D1E8E2252809D07C1C7F
:1044800043463A005946A847119B01331193270030
:10449000EEE70133119300241DE00B00303BDBB24B
:1044A000092B37D92A293AD000230A93119B1A786D
:1044B0002E2A44D000239A46119A1378683BD9B229
:1044C000122900D980E08B00CB49CB589F460123AD
:1044D0001C4301321192119A11780B00203BD8B283
:1044E0001028DAD88300C548C3589F4602231C43CE
:1044F00001321192EFE704231C4301321192EAE7E3
:1045000008231C4301321192E5E710231C430132BA
:104510001192E0E711A8FFF72BFA0A90C6E71C9B5F
:104520001A1D1C921868002804DB0A90119B0133A5
:104530001193BBE702231C4343420A93F6E7802210
:10454000D20014435A1C11925A781300303BDBB24C
:10455000092B04D92A2A07D000239A46ACE711A8D0
:10456000FFF706FA8246A7E71C9B1A1D1C921868E3
:10457000002804DB8246119B013311939CE7002045
:10458000F8E780235B002343511C119152786C2A79
:1045900001D01C0018E0C0239B001C430131119185
:1045A00012E080232343511C11915278682A01D0D4
:1045B0001C0009E0C0231C430131119104E0802359
:1045C0005B001C4301321192119B18780300253BBC
:1045D000DAB2532A00D92CE29300894AD3589F4675
:1045E00080239B001C4301321192EDE780235B0086
:1045F0001C4301321192E7E7782809D0582838D0B7
:104600006F2838D0622838D010239C430A2600E057
:104610001026582833D0692803D0642801D00C22F2
:104620009443630501D50122944369282AD0642864
:1046300028D0A30500D59FE0E30500D5B8E06306C8
:1046400000D4CAE01C9A111D1C911168FF220A4077
:1046500005940A9B04935346039302960023019307
:10466000009243463A0059462800FFF772FA0700C5
:1046700027E01026CDE70826CBE70226C9E720224F
:104680001443C8E7A30520D4E30550D4630666D5D8
:104690001C9A111D1C911168FF220A40D317D118D2
:1046A000594005940A9B0493534603930296D20FF4
:1046B0000192009143463A0059462800FFF749FA13
:1046C0000700119B01331193D2E61C9BDA1D0721D1
:1046D0008A43110008311C91116853689C46DB170E
:1046E0000C930D930C9A0D9B100048400E9062465F
:1046F00053400F930E980F990C9A0D9B801A994175
:104700000E900F9108940A9B0793534606930496C4
:10471000002305936346DA0F02920090019143460D
:104720003A0059462800FFF772FA0700C9E71C9AB9
:10473000111D1C911268D317D118594005940A9B7A
:104740000493534603930296D20F0192009143467D
:104750003A0059462800FFF7FCF90700B1E72306A5
:1047600005D51C9A111D1C910023D25E96E71C9A58
:10477000111D1C91126891E71C9BDA1D07218A43C9
:10478000110008311C9108940A9B07935346069325
:1047900004960023059302931368546800930194D0
:1047A00043463A0059462800FFF731FA070088E7E8
:1047B0001C9A111D1C9105940A9B04935346039364
:1047C0000296002301931368009343463A0059462A
:1047D0002800FFF7BEF9070073E7230606D51C9AE9
:1047E000111D1C9112681204120C31E71C9A111D44
:1047F0001C9112682CE7C046D8A1001024A200101A
:1048000068A2001046281AD01C9B07330722934346
:104810001A0008321C9204940A9A03925246029299
:104820005C681B680093019443463A00594628008F
:10483000FFF764FC0700119B0133119318E6202356
:104840001C43E1E7672801D0472802D180231B01E0
:104850001C43452801D0472801D120231C431C9B21
:104860000733072293431A0008321C9204940A9AD1
:104870000392524602925C681B680093019443467F
:104880003A0059462800FFF733FA0700119B01331D
:104890001193EDE502231A002240924623421FD0D5
:1048A00001241C9B1A1D1C927A1C914618784346C1
:1048B0003A005946A8475346002B16D1119B0133A5
:1048C00011934F46D4E5561C434659462020B8471D
:1048D000230032005C1C9D42F5D83D001700E0E744
:1048E00001233A002F000A9DF4E74A46A9460A9D93
:1048F00006E0571C434659462020C84734003A007A
:10490000661CA542F5D84D469146D7E71C9B1A1D5B
:104910001C921B6899465346002B00D1013B4E4622
:1049200001E0013613003278002A02D05A1E002B13
:10493000F7D14B46F21A10928023DB0026001E406E
:104940001C4203D0524501D95346109302231A004A
:1049500022400B92234205D03A0037004C46A9462C
:10496000554620E03A00109B5F46B3462E0006E015
:10497000551C434639002020B04723002A005C1C08
:104980000A999942F4D835005E46BB461094370028
:104990004C46A946554606E01D000134561C4346C8
:1049A0005946C84732002078002804D0002FF4D0A0
:1049B0006B1E002DF0D117004D460B9B002B03D131
:1049C000119B0133119353E50A9F109B06E0561C7F
:1049D000434659462020A847230032005C1C9F42D2
:1049E000F5D81700ECE721231C431C9B1A1D1C92D1
:1049F0001B680093059408230493534603931023E4
:104A000002930023019343463A0059462800FFF7DA
:104A1000A0F80700119B0133119329E57C1C434644
:104A20003A0059462520A847119B013311932700CE
:104A30001EE57C1C43463A005946A847119B0133AA
:104A40001193270014E50B4B9A460FE5AA464745FC
:104A50000DD343465A1E434659460020D0473800DE
:104A600013B03CBC90469946A246AB46F0BD3A0016
:104A7000F1E7C0466139001000B585B0029003919E
:104A80000121009313004A4202A90248FFF7E0FC0B
:104A900005B000BD6339001001480421014B1847DF
:104AA000E0040020C94A001010B5010018231B883B
:104AB00014221088984710BD10B5010018231B88D8
:104AC00016221088984710BDF0B5C64600B50700FD
:104AD0000E0000250123984600E00135B5420AD2B8
:104AE000AC003C192068FFF7DFFF20600028F4D1FC
:104AF00000239846F1E7404604BC9046F0BD000014
:104B0000124A936F9B0815D29066D166002905D092
:104B1000FFE7FFE7FFE7516F106F704704B5802193
:104B20000906C2175140002800D0C84303F0C4FE54
:104B3000002104BDF0B5146E556E576F166FFFF768
:104B4000E3FF1466556657671667F0BD000000D096
:104B5000114A936F9B0813D210665166002905D045
:104B6000FFE7FFE7FFE7516F106F704704B50028BC
:104B700001D00020C04303F09FFE002104BDC046C9
:104B8000F0B5146E556E576F166FFFF7E5FF14669C
:104B9000556657671667F0BD000000D094464E4A30
:104BA000926F9208624601D230E0C046F0B54A4E9C
:104BB000B56F6D08FCD3346E756E776F366F00F08D
:104BC00025F89446444A1466556657671667624648
:104BD000F0BDC0469446404A926F9208624601D2A8
:104BE00058E0C046F0B53C4EB56F6D08FCD3346E4E
:104BF000756E776F366F00F04DF89446364A14663E
:104C00005566576716676246F0BDC046002B24DB29
:104C100011D000293EDA00B5C943404200D101312C
:104C200000F038F8C943404200D10131DB43524221
:104C300000D1013300BD002AEBD1002801D10029A9
:104C400005D00020C90FC90701D1C043410800B5F4
:104C500003F02AFE0022002300BD00B500290ADB74
:104C6000DB43524200D1013300F014F8C943404203
:104C700000D1013100BDC943404200D10131DB43C5
:104C8000524200D1013300F005F8DB43524200D11B
:104C9000013300BD002923D1002B18D1002A0CD0EC
:104CA000BC460D4F38667A6600210023FFE7FFE718
:104CB000FFE77A6F386F67467047002801D00748D2
:104CC000010000B503F0F0FD0022002300BD02004A
:104CD0000B00002000217047000000D0FFFFFFFF05
:104CE000002B00D0BFE0130C28D1002AE7D080B4FD
:104CF000114F39667A66FFE7FFE730B4040C7B6F2B
:104D0000396F1B0423433B667A66FFE7FFE7FFE743
:104D1000C04684B27B6F3D6F1B0423433B667A66BB
:104D2000FFE7FFE7C04600232C042D0C7A6F386F95
:104D300000196941B0BC7047000000D0F0B594463E
:104D40000025140E01D112020835140F01D11201F1
:104D50000435940F01D192000235D40F01D15200D5
:104D60000135D40B0134254F7C66254C3C660E0C76
:104D700093B2FFE7FFE7FFE73C6F6643360C77032C
:104D8000BE467343DF0B5B04C01AB941130C734377
:104D9000DB18C91ACE086643360CB64493B2734387
:104DA0001F0F1B01C01AB941130C73431F0B1B05C6
:104DB000C01AB941860D8F023E436643360C092D59
:104DC00024DB520A7243801A7703460A6643360C84
:104DD00016235B1BDE40DF40BF1964466643821B1F
:104DE0007046043506330100D940A840C01900D3ED
:104DF0000131A24206D20023F0BD0000000000D025
:104E0000FFFFFFFF121B0130F3D3F1E709277F1BE0
:104E1000FE406446A2B27243801A00D20139220CCD
:104E20007243130C1204821A99410B007046043528
:104E300013370100F940A840801900D30131002B3D
:104E400002D1A2420AD2F0BD013000D30131121BBF
:104E5000FAD2013BF8D1A24200D2F0BD013000D31A
:104E60000131121BF7E7F0B51C0C00D080E00CB448
:104E700000251C0A04D11B02160E3343120208350A
:104E80001C0B04D11B01160F3343120104359C0B7C
:104E900004D19B00960F334392000235DC0B02D104
:104EA00092185B4101351C00971864410134464F4C
:104EB0007C66464C3C660E0CFFE7FFE7FFE7C0460A
:104EC0003C6F6643360C7703BE4697B27743C01BF0
:104ED00000D20139C01B00D201399FB27743C91BF0
:104EE000C91B170C77437E04FF0B801BB941CE080A
:104EF0006643360C0C2D33DBB644120B1F053A43C8
:104F00001B0B97B27743C01B00D201399FB2774386
:104F1000C91B170C77433E043F0C801BB941860D1B
:104F20008F023E43664329277F1BFE400C3D774698
:104F3000AF40BF1930BCA2B2ABB272437343801A08
:104F40009941220C7243130C1204801A99410200F9
:104F50000B000137001BA941F9D2781E0021F0BDDA
:104F60000C277F1BFE4077467F0BAF40FF19E0E721
:104F700000245D1C07D0144F7D663966FFE7FFE70C
:104F8000FFE7FFE73C6F95B29EB265436643401B67
:104F9000B141150C1E0C6543664336042F0C3E438D
:104FA0002D04401BB141994204D202000B002000A5
:104FB0000021F0BD01D19042F7D3801A994101340C
:104FC0009942F2D3F6E70000000000D0FFFFFFFF98
:104FD00048404140484018B41B4B5B68FC46019375
:104FE00008BD04DFAB52001018B4174B1B68FC4619
:104FF000019308BD00DFB55200109446134A926F2A
:10500000920809D2624618B40F4BDB68FC46019344
:1050100008BD0CDF6D5500100C4AF0B5146E556ECE
:10502000576F166F6246FFF7EEFF084A1466556623
:1050300057671667F0BD18B4034B9B68FC46019395
:1050400008BD08DF115400102C100120000000D012
:10505000FFB550404240504059404B40594000E05D
:10506000FFB5154F4C00640D03D0BC4204D10C03B6
:1050700014D80020090D09055C00640D03D0BC4262
:1050800004D11C030AD800221B0D1B0501264B402E
:1050900009D44B4003D58B4200D18242FFBD9942D7
:1050A000FCD19042FFBD0B43DB1803431343F5D003
:1050B000C9434918FFBD0000FF07000000B5FFF716
:1050C000CFFF804100BDC04600B5FFF7C9FF01D941
:1050D000002000BD012000BD00B5FFF7B9FF01D9D8
:1050E000002000BD012000BD00B5FFF7B1FF8041E9
:1050F00000BD012040054A00121804D85A001218B9
:1051000001D8002070470120704700207047000040
:105110000021002805D17047C1174840401AFAD035
:10512000C90713B5064B1B6898470CBC441CA2402A
:105130001005120B0349091B09051943114310BD42
:10514000E40F00201F04000010B54C00620D802306
:10515000D218DB00D21A5B057E2A10DD9E3A13DAE4
:10516000CC170903490819435242D1406400013465
:105170001532202A05DAD0400843604310BD0020D4
:1051800010BD0846604310BDC80FC018013810BDDF
:1051900018B4044B5B6AFC46019308BD24DF1D571D
:1051A000001000002C10012070B513231C78012C76
:1051B0000CD0012C13DC022C02DC1F4A1F4B9A641A
:1051C0001F48FFF771FC1F4B186070BD00231F2B99
:1051D000EFD899001848194A88500133F7E71A4860
:1051E000FFF76AFC05001948FFF766FC02380378F0
:1051F0009B007F2B19DD80222900104800F0ACFBBA
:10520000022CD8D1124B1A88B5231B029A4209D11D
:10521000104B1A88104B9A4204D1104B1A88104B2D
:105220009A42C8D00020FEF755F90E4B0E4A3221A3
:105230000E48FEF7B5F8C046715200102C10012040
:105240004C330000E40F002053440000534600009C
:1052500054380000D8380000494600009C3800004F
:105260005946000008A40010ACA4001068A4001067
:1052700007B56046002800D100BE01880A0A023046
:10528000DF2AFAD1C9B2820804D302884088000418
:10529000104300E00068024A5050039007BD000030
:1052A0002C1001200FB403BC0CBCF0B50124E407A2
:1052B000634000E0F0B50C0DCF0F661E3605891B6C
:1052C000640503D3C943404200D30131640D03D0C8
:1052D000661CF60A07D0E41B00207F00791C8907B2
:1052E0008912803C24031D0DDF0F6E1E36059B1BAB
:1052F0006D0503D3DB43524200D301336D0D03D060
:105300006E1CF60A07D0ED1B00227F007B1C9B075A
:105310009B12803D2D032F1B661B58D4A446202EC4
:1053200046DA20371400BC401D00BD40F240334136
:105330002A4380185941CB0F05D0C943C0430022EE
:1053400064425041514162464D0D28D10D0D07D1A7
:1053500000281FD0241940414941013A0D0DF9D0D0
:10536000640006D3013000D30131002C01D1400884
:105370004000013A0BD4941CE40A04D112051144F4
:10538000DB071944F0BDD907204B194300E0D907CA
:105390000020F0BD0029DDD1002CDBD1F0BD0132B1
:1053A000C6074008CD0728434908002EE1D0D9E7B9
:1053B0003C2E29DA203E40371400BC4000D00124A6
:1053C000F24014431A00BB401C43D317ACE7AC4671
:1053D000202F08DA20360400B4400D00B540F84014
:1053E00039412843A5E73C2F0CDA203F4036040022
:1053F000B44000D00124F84004430800B1400C43FD
:10540000C117EAE710001900002494E70000F07FBC
:10541000F0B50C0D661E3605891BE60A6405640DA1
:1054200002D0651CED0A04D0002001210905803C52
:105430002403A4461C0D671E3F05DB1BE70A640519
:10544000640D02D0651CED0A04D0002201231B0567
:10545000803C24037740644497B484B296B274438A
:10546000070C7E43150C6F4380B26843361802D395
:10547000012000043F183004350C00197D4184469A
:1054800088B29AB250430C0C62431F0C7C438EB21C
:105490007E43921902D301263604A4191604170C70
:1054A0003618674101BC81B29AB25143040C624381
:1054B0001B0C5C4380B25843121802D30120000435
:1054C00024181004130C401863412D185E4100206D
:1054D000474106BC88B293B258430C0C6343120C8C
:1054E000544389B251435B1802D301210904641863
:1054F00019041A0C091862416D18564100204741E1
:1055000018BCF902720D1143F0026A0D1043ED024E
:105510000A0D03D16D1940414941013B124E9B1BBD
:105520007600B3420ED26D0007D3013000267141E0
:105530006646354301D1400840001B05C918E40701
:105540002144F0BD0BDA013306D1013004D1013121
:105550004F0D01D04908F2E7E1070020F0BD013608
:1055600031050020EBE70000FF030000F0B51C0D43
:10557000671E3F05DB1BE70A6405640D02D0661C4D
:10558000F60A04D0002201231B05803C2403D02509
:105590002D060026F6432E661E096E66CE0FF619FE
:1055A000B44649004F0D02D07E1CF60A03D00020FD
:1055B0000021403F3F033E1BB600B444013F7F053E
:1055C000C91B49082E6F013676089C02950D2543AC
:1055D0007543ED137543AD1301356D10F603761B5E
:1055E0000CB4CC02450D2C43A2B2B3B25A43270CE3
:1055F0007B43350C6F43A4B26C431B1902D30124C7
:1056000024043F191C041D0CA4187D4124196D416C
:10561000009A91B2ACB26143170C7C432B0C5F43F0
:1056200092B25A43A41802D301221204BF182204D2
:10563000230C52187B41019C6C431B19520ED9015B
:105640000A434401A01A81B2B2B2514303145A432F
:10565000360C734387B27743D617D21900277E41A1
:1056600036049B191704160C7F185E417316ED184B
:10567000F301002680337541A90F06D16400690A41
:10568000E8055B0A184309D22FE0042294448033D2
:105690007541A90AA8059B0A184326D340414941F0
:1056A0002404009A019B0D005543641B4343E41AF4
:1056B00095B286B27543170C7E43030C5F4392B2DA
:1056C0005A43B61802D301221204BF183204330C15
:1056D00052197B4152429C41002C02D400220130DD
:1056E00051414008CA071043490802B06246D70733
:1056F0009210084BD218084B9A4203D2120589180F
:10570000C919F0BD0020002A01DC3900F0BD0133C9
:105710001905F5E7FD030000FE070000002200B5B3
:10572000203200F004F8080000BD000000220B1534
:105730000AD410B5944600F031F81414013400DA9C
:105740000021CB17144C20470020002170476244F1
:10575000343A0CD40C2A07DA0400914090405242AB
:105760002032D440214310BDD843D94310BD20324C
:1057700007D40C469440524220321141D04020437D
:1057800010BD0800C917203203D452422032104104
:1057900010BD1800190010BD4F5700100A0DCC0F96
:1057A000531E1B05C91A520503D3C943404200D3F7
:1057B0000131520D03D0531CDB0A07D0121B00200D
:1057C0006400611C89078912803A1203014BD21AC6
:1057D00070470000FF03000051434343C9188C4643
:1057E000110C83B24B4310B4040C614392B280B2EB
:1057F000504362431C041B0C001910BC5941130494
:10580000120CC018514161447047000070B5132359
:105810001D782A48FFF750F90400012D11D0012D01
:1058200009DDA31E1B789B007F2B40DD8022210019
:10583000234800F091F82348FFF736F9224B18600F
:1058400070BD542201001E4800F086F81F4B1A88D4
:105850001F4B9A421CD1A7239B011A881D4B9A42C9
:1058600016D11D4B1A881D4B9A4211D11C4B1A8818
:1058700094239B019A420BD11A4B1A881A4B9A42D5
:1058800006D11A4B1A681A4B9A4201D1152307E028
:105890001848FDF71FFE99001748094A8850013340
:1058A0001F2BF8D9144A064B1A62DA61B7E7134B7B
:1058B000134A42211348FDF773FDC04653460000CA
:1058C0002C1101204C330000E40F0020EE290000D1
:1058D000C40F0000C20D0000962B0000C0B50000F0
:1058E000182B0000CC2A000010B50000FC2C000092
:1058F00051ED87645489001009590010C0A40010AC
:1059000034A50010F4A4001007B56046002800D1AB
:1059100000BE01880A0A0230DF2AFAD1C9B2820821
:1059200004D3028840880004104300E00068024A63
:105930005050039007BD00002C11012001480421A4
:10594000014B1847F0040020C94A0010014B1B68A6
:1059500018470000F0040020014B5B681847000066
:10596000F004002010B50300080011001B689847E0
:1059700010BD0000F8B507000D001600437C002B99
:1059800002D0002400200CE0036811002800984792
:105990002DE03B7C10E0022115483B689847601CD5
:1059A0000134B44214DA002CF3DD2B19013B1B78CF
:1059B0000D3B5A425341DBB22A5D0A2AF0D1002B3B
:1059C000EED1A042E7DA211A28183B689847E2E7AF
:1059D000B04203DA311A28183B689847002E06DDDA
:1059E000AD19013D2B780D3B5A4253413B74F8BD34
:1059F000ACA5001070B505000368002B16D00C4B49
:105A00001C6805E0290004C92000FFF7B3FFE46823
:105A1000002C09D02368002BF9D0064B1B68002B03
:105A2000F0D0A342F3D1EDE700232B6070BDC04658
:105A3000BC0B0020C00B002070B505000C000B68EB
:105A4000802B05D021684B1C23606418257170BD24
:105A50000800FFF7CFFFF5E710B582B0D0231B0693
:105A600000241C5701A9074802F02EFF002806D188
:105A7000019B9C4203D0034802F03EFF012002B08C
:105A800010BDC0464005002010B5024802F004FFDA
:105A900010BDC04640050020F0B5CE46474680B553
:105AA00083B006000D0090461C00FFF7D5FF81462D
:105AB0006B1C05D0002C08D0194F1A4B1C6807E04E
:105AC000300002F0AFFE0500F4E7174FF5E7E46899
:105AD000002C17D02368002BF9D0144B1B68002B27
